:100000000C9462000C948A000C948A000C948A0070
:100010000C948A000C948A000C948A000C948A0038
:100020000C948A000C948A000C948A000C948A0028
:100030000C948A000C948A000C948A000C948A0018
:100040000C9427030C948A000C94F5020C94CF02B4
:100050000C948A000C948A000C948A000C948A00F8
:100060000C948A000C948A000000000024002700F1
:100070002A0000000000250028002B0000000008D6
:10008000000201000003040700000000000000005F
:1000900000000000230026002900040404040404D6
:1000A0000404020202020202030303030303010227
:1000B00004081020408001020408102001020408F6
:1000C0001020C30511241FBECFEFD8E0DEBFCDBF87
:1000D00011E0A0E0B1E0E6EDFFE002C005900D9276
:1000E000A433B107D9F721E0A4E3B1E001C01D9228
:1000F000AE3DB207E1F710E0C2E6D0E004C02197C0
:10010000FE010E94E307C136D107C9F70E94B6037A
:100110000C94E9070C940000AF92BF92CF92DF924B
:10012000EF92FF920F931F93CF93DF936C017B01AC
:100130008B01040F151FEB015E01AE18BF08C0173D
:10014000D10759F06991D601ED91FC910190F081B0
:10015000E02DC6010995892B79F7C501DF91CF9173
:100160001F910F91FF90EF90DF90CF90BF90AF90D5
:100170000895FC01538D448D252F30E0842F90E0AD
:10018000821B930B541710F0CF9608950197089592
:10019000FC01918D828D981761F0A28DAE0FBF2F5B
:1001A000B11D5D968C91928D9F5F9F73928F90E0B1
:1001B00008958FEF9FEF0895FC01918D828D981720
:1001C00031F0828DE80FF11D858D90E008958FEF5D
:1001D0009FEF0895FC01918D228D892F90E0805C26
:1001E0009F4F821B91098F739927089581E491E0B5
:1001F0000E94EA0021E0892B09F420E0822F089573
:1002000080E090E0892B29F00E94F60081110C9487
:1002100000000895FC01A48DA80FB92FB11DA35AA9
:10022000BF4F2C91848D90E001968F739927848F16
:10023000A689B7892C93A089B1898C918370806439
:100240008C93938D848D981306C00288F389E02DDA
:1002500080818F7D80830895EF92FF920F931F938B
:10026000CF93DF93EC0181E0888F9B8D8C8D981369
:100270001AC0E889F989808185FF15C09FB7F89475
:10028000EE89FF896083E889F989808183708064C1
:1002900080839FBF81E090E0DF91CF911F910F910C
:1002A000FF90EF900895F62E0B8D10E00F5F1F4F1B
:1002B0000F731127E02E8C8D8E110CC00FB607FC2A
:1002C000FACFE889F989808185FFF5CFCE010E94B8
:1002D0000A01F1CFEB8DEC0FFD2FF11DE35AFF4F1B
:1002E000F0829FB7F8940B8FEA89FB898081806246
:1002F000CFCFCF93DF93EC01888D8823B9F0AA8903
:10030000BB89E889F9898C9185FD03C0808186FDD0
:100310000DC00FB607FCF7CF8C9185FFF2CF80811F
:1003200085FFEDCFCE010E940A01E9CFDF91CF9189
:10033000089590E0FC01E458FF4F2491FC01E25540
:10034000FF4F3491FC01E656FF4FE491EE23C9F0D4
:10035000222339F0233001F1A8F4213019F12230A1
:1003600029F1F0E0EE0FFF1FEE58FF4FA591B49179
:100370008FB7F894EC91611126C030953E233C93E1
:100380008FBF08952730A9F02830C9F0243049F7ED
:10039000809180008F7D03C0809180008F77809353
:1003A0008000DFCF84B58F7784BDDBCF84B58F7DB0
:1003B000FBCF8091B0008F778093B000D2CF809137
:1003C000B0008F7DF9CF3E2BDACFCF93DF9390E053
:1003D000FC01E255FF4F249186569F4FFC0184910A
:1003E0008823D1F090E0880F991FFC01E859FF4F56
:1003F000A591B491FC01EE58FF4FC591D4916111C4
:100400000EC09FB7F8948C91E22FE0958E238C93C9
:100410002881E223E8839FBFDF91CF9108958FB7B2
:10042000F894EC91E22BEC938FBFF6CFE82FF0E03D
:10043000E458FF4FE491E33011F138F4E130A9F0D2
:10044000E230C1F061E00C949901E73011F1E8303D
:1004500041F1E430B9F780918000806280938000A0
:1004600070938B0060938A00089584B5806884BD82
:1004700067BD089584B5806284BD68BD089580918C
:10048000800080688093800070938900609388006A
:1004900008958091B00080688093B0006093B300AD
:1004A00008958091B00080628093B0006093B400A2
:1004B00008953FB7F8948091390190913A01A09145
:1004C0003B01B0913C0126B5A89B05C02F3F19F018
:1004D0000196A11DB11D3FBFBA2FA92F982F8827C4
:1004E000BC01CD01620F711D811D911D42E0660F9F
:1004F000771F881F991F4A95D1F70895FC01019035
:100500000020E9F73197AF01481B590BBC0181E48A
:1005100091E00C948C008F929F92AF92BF920F93B8
:100520001F93CF93DF93CDB7DEB7A1970FB6F894A3
:10053000DEBF0FBECDBF19A2423008F44AE08E01E3
:100540000F5D1F4F842E912CB12CA12CA50194017D
:100550000E94C107E62FB901CA01EA30F4F4E05D58
:10056000D801EE938D01232B242B252B79F790E0D6
:1005700080E0109719F0CD010E947E02A1960FB67F
:10058000F894DEBF0FBECDBFDF91CF911F910F91C9
:10059000BF90AF909F908F900895E95CE1CF1F923C
:1005A0000F920FB60F9211242F933F934F935F93A7
:1005B0006F937F938F939F93AF93BF93EF93FF932B
:1005C00081E491E00E940A01FF91EF91BF91AF9108
:1005D0009F918F917F916F915F914F913F912F915B
:1005E0000F900FBE0F901F9018951F920F920FB68D
:1005F0000F9211242F938F939F93EF93FF93E0918A
:100600005101F09152018081E0915701F091580120
:1006100082FD1BC0908180915A018F5F8F73209162
:100620005B01821741F0E0915A01F0E0EF5BFE4F71
:10063000958F80935A01FF91EF919F918F912F9108
:100640000F900FBE0F901F9018958081F4CF1F92CE
:100650000F920FB60F9211242F933F938F939F9376
:10066000AF93BF938091350190913601A0913701EE
:10067000B09138013091340123E0230F2D3758F524
:100680000196A11DB11D20933401809335019093F3
:100690003601A0933701B0933801809139019091D0
:1006A0003A01A0913B01B0913C010196A11DB11D01
:1006B0008093390190933A01A0933B01B0933C01A0
:1006C000BF91AF919F918F913F912F910F900FBE4E
:1006D0000F901F90189526E8230F0296A11DB11DBB
:1006E000D2CFCF92DF92EF92FF920F931F93E82F1A
:1006F000F92F05C0015011092109310961F19081DB
:1007000096239417B9F305C0015011092109310945
:1007100011F1908196239413F7CFC12CD12CE12CA9
:10072000F12C0AC08FEFC81AD80AE80AF80A0C158B
:100730001D052E053F0579F080818623841791F3EE
:100740006C2D7D2D8E2D9F2D1F910F91FF90EF9081
:10075000DF90CF90089560E070E080E090E01F911E
:100760000F91FF90EF90DF90CF900895789484B52B
:10077000826084BD84B5816084BD85B5826085BD9D
:1007800085B5816085BD80916E00816080936E002B
:10079000109281008091810082608093810080911D
:1007A00081008160809381008091800081608093CE
:1007B00080008091B10084608093B1008091B0008E
:1007C00081608093B00080917A00846080937A0089
:1007D00080917A00826080937A0080917A008160B3
:1007E00080937A0080917A00806880937A001092DA
:1007F000C10061E083E00E94E50160E084E00E94C6
:10080000E50161E08BE00E94E50161E08AE00E9481
:10081000E50161E089E00E94E50161E088E00E9475
:10082000E50161E086E00E94E50161E085E00E946B
:10083000E501E0915101F091520182E08083E09165
:100840004D01F0914E011082E0914F01F091500165
:100850008FEC808310925901E0915501F09156017F
:1008600086E08083E0915301F091540180818061A2
:100870008083E0915301F0915401808188608083EE
:10088000E0915301F0915401808180688083E09170
:100890005301F091540180818F7D808320E0222ECE
:1008A00020E0322E60E083E00E94990183E090E036
:1008B0000197F1F761E083E00E94990183E290E003
:1008C0000197F1F760E083E00E949901E2EBF0E02C
:1008D0006491EEE9F0E08491E82FF0E0EE0FFF1F65
:1008E000E057FF4F8591949100E412E42FE030E04F
:1008F000462F0E947103611571058105910529F04C
:100900006F5F7F4F8F4F9F4F9F700E949A0626E91F
:1009100033E44BE05DE30E944F0720E030E040E02D
:100920005FE30E944F076B017C01C0923D01D092B2
:100930003E01E0923F01F09240010E946206EB010D
:100940000E9459024B015C0184E6482E512C612C17
:10095000712C0E945902681979098A099B09683E1D
:10096000734081059105A8F3F1E04F1A5108610821
:10097000710828EE820E23E0921EA11CB11C4114C6
:1009800051046104710429F7A7019601C701B6015A
:100990000E94BC07882309F441C082E191E00E94D3
:1009A0007E028EE191E00E947E0261E086E0A497E3
:1009B0000CF0C6C00E94E50166EE70E086E00E9481
:1009C000160261E085E00E94E50166EE70E085E0D8
:1009D0000E94160260E08BE00E94990161E08AE0CB
:1009E0000E94990160E089E00E94990160E088E03E
:1009F0000E94990181E291E00E947E028EE191E0E5
:100A00000E947E022114310409F44CCF0E94F600AA
:100A1000882309F447CF0E94000044CF46015701C4
:100A2000E894B7F82FEF3FEF4FE75FE7C501B40158
:100A30000E94BC0781110DC02FEF3FEF4FE75FE72A
:100A4000C501B4010E945D0618161CF486E191E010
:100A5000A6CF2FEF3FEF4FE75FE4C701B6010E943B
:100A60004A0718161CF48AE191E099CF2FEF3FEF67
:100A70004FE75FECC701B6010E945D0687FDF3CF2B
:100A800020E030E0A901C701B6010E945D0687FFA2
:100A900009C06DE281E491E00E942C01F7FAF09424
:100AA000F7F8F0942AE037ED43EA5BE3C701B601BB
:100AB0000E94F1054B015C010E9469066B017C01FB
:100AC0000E9498069B01AC01C501B4010E94F0058B
:100AD0004B015C014AE0C701B6010E948B026EE245
:100AE00081E491E00E942C0120E030E040E251E4FA
:100AF000C501B4010E944F074B015C010E946906C9
:100B00006B01F12CE12C4AE0C701B6010E948B0277
:100B1000C701B6010E9498069B01AC01C501B40152
:100B20000E94F00520E030E040E251E40E944F07CF
:100B30000E94690690E080E04AE00E948B0231CF7B
:100B40000E94E50162E870E086E00E94160261E022
:100B500085E00E94E50166E970E085E00E941602EA
:100B600061E08BE00E94990160E08AE00E949901B7
:100B700061E089E00E94990160E088E00E949901AB
:100B800089E291E039CFE1E4F1E01382128288EE4C
:100B900093E0A0E0B0E084839583A683B78384E0EC
:100BA00091E09183808385EC90E09587848784EC45
:100BB00090E09787868780EC90E0918B808B81EC2A
:100BC00090E0938B828B82EC90E0958B848B86EC0B
:100BD00090E0978B868B118E128E138E148E089553
:100BE0005058BB27AA270E9408060C9410070E94A1
:100BF000020738F00E94090720F039F49F3F19F4EA
:100C000026F40C94FF060EF4E095E7FB0C94F9062D
:100C1000E92F0E94210758F3BA1762077307840768
:100C2000950720F079F4A6F50C9443070EF4E095AF
:100C30000B2EBA2FA02D0B01B90190010C01CA0196
:100C4000A0011124FF27591B99F0593F50F4503E41
:100C500068F11A16F040A22F232F342F4427585F33
:100C6000F3CF469537952795A795F0405395C9F74B
:100C70007EF41F16BA0B620B730B840BBAF0915003
:100C8000A1F0FF0FBB1F661F771F881FC2F70EC0A2
:100C9000BA0F621F731F841F48F487957795679575
:100CA000B795F7959E3F08F0B0CF9395880F08F061
:100CB0009927EE0F9795879508950E94D50608F419
:100CC00081E008950E9469066894B1110C9444076C
:100CD00008950E94290788F09F5798F0B92F992707
:100CE000B751B0F0E1F0660F771F881F991F1AF017
:100CF000BA95C9F714C0B13091F00E944307B1E032
:100D000008950C944307672F782F8827B85F39F030
:100D1000B93FCCF3869577956795B395D9F73EF4AF
:100D200090958095709561957F4F8F4F9F4F089557
:100D3000E89409C097FB3EF4909580957095619575
:100D40007F4F8F4F9F4F9923A9F0F92F96E9BB272B
:100D50009395F695879577956795B795F111F8CFA7
:100D6000FAF4BB0F11F460FF1BC06F5F7F4F8F4F12
:100D70009F4F16C0882311F096E911C0772321F008
:100D80009EE8872F762F05C0662371F096E8862FA0
:100D900070E060E02AF09A95660F771F881FDAF7F7
:100DA000880F9695879597F90895990F0008550F24
:100DB000AA0BE0E8FEEF16161706E807F907C0F0E1
:100DC00012161306E407F50798F0621B730B840BE9
:100DD000950B39F40A2661F0232B242B252B21F4C3
:100DE00008950A2609F4A140A6958FEF811D811D63
:100DF000089597F99F6780E870E060E008959FEF9D
:100E000080EC089500240A941616170618060906A1
:100E1000089500240A941216130614060506089570
:100E2000092E0394000C11F4882352F0BB0F40F4F8
:100E3000BF2B11F460FF04C06F5F7F4F8F4F9F4F38
:100E4000089557FD9058440F551F59F05F3F71F0BA
:100E50004795880F97FB991F61F09F3F79F0879521
:100E60000895121613061406551FF2CF4695F1DFAA
:100E700008C0161617061806991FF1CF869571053A
:100E8000610508940895E894BB2766277727CB016E
:100E900097F908950E94D50608F48FEF08950E94EF
:100EA00062070C9410070E94020738F00E9409079D
:100EB00020F0952311F00C94F9060C94FF061124F0
:100EC0000C9444070E94210770F3959FC1F3950F7E
:100ED00050E0551F629FF001729FBB27F00DB11DBE
:100EE000639FAA27F00DB11DAA1F649F6627B00D4E
:100EF000A11D661F829F2227B00DA11D621F739F37
:100F0000B00DA11D621F839FA00D611D221F749F44
:100F10003327A00D611D231F849F600D211D822F8B
:100F2000762F6A2F11249F5750409AF0F1F08823B2
:100F30004AF0EE0FFF1FBB1F661F771F881F9150DF
:100F40005040A9F79E3F510580F00C94F9060C948F
:100F500044075F3FE4F3983ED4F386957795679511
:100F6000B795F795E7959F5FC1F7FE2B880F911D09
:100F70009695879597F908950E94D506880B990B49
:100F80000895A1E21A2EAA1BBB1BFD010DC0AA1FCA
:100F9000BB1FEE1FFF1FA217B307E407F50720F0E2
:100FA000A21BB30BE40BF50B661F771F881F991F5D
:100FB0001A9469F760957095809590959B01AC01A6
:100FC000BD01CF010895EE0FFF1F0590F491E02DB4
:060FD0000994F894FFCF24
:100FD600000000002C018C00B9007901EA00C8006D
:100FE600DC006E616E00696E66006F7666000D0A43
:100FF600004F626A65637473004E6F206F626A65A4
:04100600637473009C
:00000001FF
